:107C0000112484B714BE81FD01C023D180E090E02F
:107C100020E80FB6F89420936100809361000FBEB6
:107C200085E08093810082E08093C00088E18093AA
:107C3000C10086E08093C20080E18093C4008EE0A2
:107C4000F2D0539A82E020E33CEF91E0309385003C
:107C50002093840096BBB09BFECF4B9AA895815091
:107C6000A9F7CC24DD2433E0732EAA24A39425E0C5
:107C7000922E91E1892EC9D0813461F4C6D0182F9B
:107C8000D8D0123829F1113811F486E001C083E010
:107C9000B4D0B0C0823411F484E103C0853419F447
:107CA00085E0CFD0A7C0853579F4AFD0E82EFF248A
:107CB000ACD0082F10E0102F00270E291F29000F2D
:107CC000111FB7D0680196C0863521F484E0B9D081
:107CD00080E0DECF843609F059C097D090E0D82FED
:107CE000CC2793D090E0C82BD92B8FD0B82E8E0103
:107CF000E12CF1E0FF2E89D0F70181937F01015043
:107D00001040C9F796D0F5E4BF16C1F49601E0E043
:107D1000F1E011C04081F999FECFC9010196319679
:107D20001FBA32BD21BD40BD0FB6F894FA9AF99A38
:107D30000FBE21979C01209769F75CC0F60177BEC2
:107D4000E89507B600FCFDCFB601AE01A0E0B1E0BA
:107D50002C9130E011968C91119790E0982F882704
:107D6000822B932B1296FB010C01A7BEE8951124E0
:107D70006E5F7F4F4250504059F7F60197BEE8952D
:107D800007B600FCFDCF87BEE89534C0843721F5E7
:107D90003CD090E0D82FCC2738D090E0C82BD92BFE
:107DA00034D0182F46D0153479F4C6018C010F5FFA
:107DB0001F4FF999FECF92BD81BDF89A80B51DD0B5
:107DC0002197C1F0C801F2CF8601F80185918F019A
:107DD00014D02197D1F70EC0853739F42AD08EE11F
:107DE0000CD085E90AD08FE053CF813511F488E0BB
:107DF0001AD01FD080E101D03ECF982F8091C000D3
:107E000085FFFCCF9093C60008954B9A8091C000E7
:107E100087FFFCCF8091C00084FD01C0A8958091B0
:107E2000C6004B9A0895E0E6F0E098E190838083E5
:107E30000895EBDF803219F088E0F5DFFFCF84E1B1
:107E4000DCCF1F93182FE1DF1150E9F7F2DF1F910C
:107E5000089523E030E090E80FB6F8949093610025
:107E6000209361000FBE282E80E0DDDFEE27FF2784
:027E7000099473
:027FFE0000067B
:0400000300007C007D
:00000001FF
