:107C0000CDB7DEB72797DEBFCDBF112414B714BEA2
:107C10001E821C821D82579A5F9A219A299A5C9A29
:107C200081E078D184E013D1489B02C080E28C834C
:107C30004C9902C080E28E8311FF06C08C818111B5
:107C400005C08E81811102C0812F97D188E0FFD0BD
:107C5000299861E08EEF93E0A5D185E080938100C3
:107C6000559A82E08093C00088E18093C10086E04D
:107C70008093C20083E08093C4008EE069D11B82B0
:107C800019821A8266E0F62E08E11EEFEE24E394D4
:107C90001093850000938400E6BAB09BFECF4D9A06
:107CA000A895CE01F0FE02C0019601C0049663E0E3
:107CB00070E0ECD0FA9461F700E010E030E4D32EED
:107CC000CC24C39445E0B42E51E1A52E35D18134A6
:107CD00079F432D18F8342D18F81823811F482E0DE
:107CE00005C0813811F485E001C083E01ED1ACC02D
:107CF000823411F484E103C0853419F485E036D16F
:107D0000A3C0853541F418D1082F16D110E0182BE7
:107D1000000F111F98C0863521F484E027D180E040
:107D2000E5CF843609F058C0DD821E821C8263E0F4
:107D300070E0CE010496AAD0FFD0FED0782EFCD001
:107D4000982EE12CFF24F394F7D0F70181937F0163
:107D50007E12FACF03D1F5E49F1210C04801E12C46
:107D6000FF24F3947E1409F42DC0F70161917F0183
:107D7000C4012AD1FFEF8F1A9F0AF4CF83E0F801E4
:107D800087BFE89507B600FCFDCFA801A0E0B1E0F1
:107D90008C9112969D0121503109F901208190E0CA
:107DA000922BFA010C01C7BEE89511244E5F5F4F7C
:107DB0007A12EECFF801B7BEE89507B600FCFDCF0A
:107DC000A7BEE89563E070E0CE0101965FD063E066
:107DD0008CEF93E0E7D038C0843741F5DC821E8217
:107DE0001D8263E070E0CE01049650D0A5D0A4D0EF
:107DF000982EA2D08F83B2D08F817801853479F408
:107E0000900EC701C7D091D0FFEFEF1AFF0A9E1066
:107E1000F8CF63E070E0CE01019638D015C0F701CD
:107E200085917F0182D09A94D1F7F3CF853739F4C9
:107E300095D08EE17AD085E978D08FE057CF813523
:107E400011F488E085D08AD080E16FD03FCF8830B0
:107E500049F0843051F0823059F0813061F484E08F
:107E600090E00BC081E090E008C082E090E005C0A7
:107E700083E090E002C080E090E020E80FB6F89444
:107E800020936100809361000FBE0895CF92DF922E
:107E9000EF92FF920F931F93CF93DF9300D0CDB754
:107EA000DEB76C017B01009161000F7010E0569A03
:107EB0009BB19F7B2BB1206488E02A839983C7DF25
:107EC0008FB7F894F601EC0CFD1C2A819981EE1510
:107ED000FF0561F0319148E02BB937FF9BB9330FB3
:107EE000000000C09BB94A95B9F7F1CF8FBF80E879
:107EF0000FB6F89480936100009361000FBE0F905D
:107F00000F90DF91CF911F910F91FF90EF90DF9035
:107F1000CF9008959FB7F894882311F03A9A01C042
:107F20003A984298E19A9FBF08959091C00095FFBA
:107F3000FCCF8093C60008958091C00087FFFCCFDE
:107F40008091C00084FD01C0A8958091C60008956D
:107F5000E0E6F0E098E1908380830895EDDF8032E1
:107F600019F088E0F5DFFFCF84E1DFCFCF93C82F92
:107F7000E3DFC150E9F7CF91F1CFC82F682F8FEF22
:107F800093E010D084E063DF2C2E80E0E1DFEE2769
:107F9000FF270994F999FECF92BD81BDF89A9927E0
:107FA00080B50895262FF999FECF92BD81BDF89A2C
:107FB000019700B4021639F01FBA20BD0FB6F8942D
:107FC000FA9AF99A0FBE0895262FF999FECF1FBA93
:107FD00092BD81BD20BD0FB6F894FA9AF99A0FBEF2
:047FE0000196089569
:0E7FF000463F8A3F273F4444555566660800C9
:027FFE0002057A
:0400000300007C007D
:00000001FF
