:107C0000CDB7DEB72797DEBFCDBF112414B714BEA2
:107C10001E821C821D82579A5F9A219A299A5C9A29
:107C200081E07DD184E013D1489B02C080E28C8347
:107C30004C9902C080E28E8311FF06C08C818111B5
:107C400005C08E81811102C0812F9CD180E1FFD0BF
:107C5000299861E08EEF93E0AAD185E080938100BE
:107C6000559A82E08093C00088E18093C10086E04D
:107C70008093C20080E18093C4008EE06ED11B82AD
:107C800019821A8266E0F62E00E31CEFEE24E394DC
:107C90001093850000938400E6BAB09BFECF4D9A06
:107CA000A895CE01F0FE02C0019601C0049663E0E3
:107CB00070E0ECD0FA9461F700E010E030E4D32EED
:107CC000CC24C39445E0B42E51E1A52E3AD18134A1
:107CD00079F437D18F8347D18F81823811F482E0D4
:107CE00005C0813811F485E001C083E023D1ACC028
:107CF000823411F484E103C0853419F485E03BD16A
:107D0000A3C0853541F41DD1082F1BD110E0182BDD
:107D1000000F111F98C0863521F484E02CD180E03B
:107D2000E5CF843609F058C0DD821E821C8263E0F4
:107D300070E0CE010496AAD004D103D1782E01D1EF
:107D4000982EE12CFF24F394FCD0F70181937F015E
:107D50007E12FACF08D1F5E49F1210C04801E12C41
:107D6000FF24F3947E1409F42DC0F70161917F0183
:107D7000C4012FD1FFEF8F1A9F0AF4CF83E0F801DF
:107D800087BFE89507B600FCFDCFA801A0E0B1E0F1
:107D90008C9112969D0121503109F901208190E0CA
:107DA000922BFA010C01C7BEE89511244E5F5F4F7C
:107DB0007A12EECFF801B7BEE89507B600FCFDCF0A
:107DC000A7BEE89563E070E0CE0101965FD063E066
:107DD0008CEF93E0ECD038C0843741F5DC821E8212
:107DE0001D8263E070E0CE01049650D0AAD0A9D0E5
:107DF000982EA7D08F83B7D08F817801853479F4FE
:107E0000900EC701CCD096D0FFEFEF1AFF0A9E105C
:107E1000F8CF63E070E0CE01019638D015C0F701CD
:107E200085917F0187D09A94D1F7F3CF853739F4C4
:107E30009AD08EE17FD085E97DD08FE057CF813514
:107E400011F488E08AD08FD080E174D03FCF8830A1
:107E500049F0843051F0823059F0813061F484E08F
:107E600090E00BC081E090E008C082E090E005C0A7
:107E700083E090E002C080E090E020E80FB6F89444
:107E800020936100809361000FBE0895CF92DF922E
:107E9000EF92FF920F931F93CF93DF9300D0CDB754
:107EA000DEB76C017B01009161000F7010E0569A03
:107EB0009BB19F7B2BB1206480E12A839983C7DF2C
:107EC0008FB7F894F601EC0CFD1C2A819981EE1510
:107ED000FF0589F0319148E02BB9000000C037FF61
:107EE0009BB9330F000000C000C000C09BB900C0A8
:107EF0004A9591F7ECCF8FBF80E80FB6F894809346
:107F00006100009361000FBE0F900F90DF91CF9141
:107F10001F910F91FF90EF90DF90CF9008959FB742
:107F2000F894882311F03A9A01C03A984298E19A5D
:107F30009FBF08959091C00095FFFCCF8093C6002D
:107F400008958091C00087FFFCCF8091C00084FD20
:107F500001C0A8958091C6000895E0E6F0E098E1A0
:107F6000908380830895EDDF803219F088E0F5DF9B
:107F7000FFCF84E1DFCFCF93C82FE3DFC150E9F714
:107F8000CF91F1CFC82F682F8FEF93E010D084E00E
:107F90005EDF2C2E80E0E1DFEE27FF270994F999C0
:107FA000FECF92BD81BDF89A992780B50895262FFE
:107FB000F999FECF92BD81BDF89A019700B40216DF
:107FC00039F01FBA20BD0FB6F894FA9AF99A0FBE8D
:107FD0000895262FF999FECF1FBA92BD81BD20BD0D
:0E7FE0000FB6F894FA9AF99A0FBE019608951A
:0E7FF000463F8F3F273F4444555566661000BC
:027FFE0002057A
:0400000300007C007D
:00000001FF
